:0300000002093DB5
:0C093D00787FE4F6D8FD7581780209840B
:100CE4004143434944454E54002B3230313039326C
:070CF40039393835353200B3
:1008AA00120D39120D57120D12120CFB120D741281
:1008BA000BC4120C39120D57120B94120C39120D6B
:1008CA0057120B64120C39E578702D120D577BFF05
:1008DA007A0C79E4120BEF120C39756F00757000FF
:1008EA0075712975720075730075740A7BFF7A0C2D
:1008FA0079ED120A47757801120C99120AB9120C8D
:10090A0039120D577B007A007916120800120C3939
:10091A00120C39120D577B007A007929120BEF124B
:10092A000D8A7B007A00790A120BEF120C39120C2D
:03093A003980946D
:100C3900E4F58CF58AD28CFFFE308DFDC28DD28C05
:0F0C49000FBF00010EEF640A4E70EEC28DC28C19
:010C58002279
:090D6B00AB6C056EE56EAA6D2269
:100D39007F38120D497F0F120D49120D57020D858B
:0A0D57007F01120D497F80020D4953
:050D85007F80020D4912
:050D8A007FC0020D49CD
:0E0D49008FA0C280C281D282120D26C28222E9
:100CCC00EF640A6012EF640D600D8FA0D280C281B8
:080CDC00D282120D26C2822211
:100BEF008B758A768977AB75AA76A977120CB36065
:100BFF00130577E5777002057614F9120CB3FF121F
:050C0F000CCC80E22284
:060800008B6C8A6D896E0D
:10080600E4F56F120D6B7002056D12088A940440B0
:10081600F27F2F120CCCE4F56F120D6B7002056D92
:1008260012088A940240F27F2F120CCCE4F56F1264
:100836000D6B7002056D12089940F4120D8AE4F5ED
:100846006FE56FB40110120D6B7002056D14F9128D
:100856000CB32402800C120D6B7002056D14F91294
:100866000CB3FF120CCC056FE56FC3940240D27F28
:100876003A120CCCE4F56F120D6B7002056D12087E
:030886009940F4A2
:100889002214F9120CB3FF120CCC056FE56FC322C9
:1008990014F9120CB3FF120CCC056FE56FC3940267
:0108A900222C
:100D2600438909758CAFE4F58AD28C308DFDC28D6E
:030D3600C28C224A
:1009C9004154004530000D0A0044697361626C6549
:1009D900204563686F002B434D47463D00546578B9
:1009E90074204D6F64650053656E64696E672053AA
:1009F9004D532E2E2E002B434D47533D004163632B
:100A09006964656E74204F636375726564206174EF
:100A19003A0A002C2000534D532053656E74002B65
:100A290043474E535057523D00456E61626C6520F5
:0E0A3900474E5353002B43474E53494E460041
:060D610001080001090079
:100C7900120CFB7BFF7A0979C9227BFF7A0979CFAC
:100C8900227434256CF8E6FF227B007A007934223D
:100CFB00E4FFFE74342FF8E4F6F5080FBF00010E85
:060D0B00EF64384E70EDAC
:010D110022BF
:03002300020B15B8
:100B1500C0E0C0D075D000C00030983CC298E50850
:100B2500B4360E2434F8760D74352508F876008031
:100B350027E508D394365020E599640D6005E599BD
:100B4500B40A0CE508D39400400E750901800974B8
:0F0B5500342508F8A6990508D000D0D0D0E0329A
:100BC400120C79120C147BFF7A0979CC120C1412D2
:100BD4000C83120C14E50960FC7BFF7A0979D212AC
:0B0BE4000BEF120D8A120C92020BEFB7
:100B6400120C79120C147BFF7A0979DF120C147FB2
:100B740031120D7D120C83120C14E50960FC7BFF0D
:100B84007A0979E6120BEF120D8A120C92020BEF1E
:100A47008B6C8A6D896E120CFB7BFF7A0979F01229
:100A57000BEF120D8A120C7C120C147BFF7A0979AA
:100A6700FF120C147F22120D7DAB6CAA6DA96E12BA
:100A77000C147F22120D7D120C83120C14120C59C8
:100A87007BFF7A0A7906120C14AB6FAA70A9711250
:100A97000C147BFF7A0A791C120C14AB72AA73A987
:100AA70074120C147F1A120D7D7BFF7A0A791F02CC
:020AB7000BEF43
:100B9400120C79120C147BFF7A0A7928120C147F38
:100BA40031120D7D120C83120C14E50960FC7BFFDD
:100BB4007A0A7932120BEF120D8A120C92020BEFA1
:100C9900120C79120C147BFF7A0A793E120C141289
:0A0CA9000C83120C14E50960FC2214
:100AB900756C0EE4F56D120C59E56CC39508504B35
:100AC900120C8A70167416256CF8E4F67429256CD4
:100AD900F8E4F6740A256CF8E4F622EFB42C040560
:100AE9006D8024E56D14600E1460122402701812D2
:100AF9000C8A7408800C120C8A74088005120C8AFE
:0B0B090074DF256CF8A607056C80AEB9
:010B140022BE
:100C5900E4F58CF58AD28CFFFE308DFDC28DD28CE5
:0F0C69000FBF00010EEF640A4E70EEC28DC28CF9
:010C78002259
:100D1200C29FD29EC29DD29C438920758DFD758B48
:040D2200FDD28E224E
:080D7D008F993099FDC2992203
:100C14008B758A768977AB75AA76A977120CB3603F
:100C2400130577E5777002057614F9120CB3FF12F9
:050C34000D7D80E222AD
:030D67000178010F
:03000300020D8F5C
:040D8F007578003241
:090D7400D2AFD2ACD2A8D2882281
:100949000208AAE493A3F8E493A34003F68001F212
:1009590008DFF48029E493A3F85407240CC8C333AF
:10096900C4540F4420C8834004F456800146F6DF7E
:10097900E4800B0102040810204080900D61E47EA0
:10098900019360BCA3FF543F30E509541FFEE49373
:10099900A360010ECF54C025E060A840B8E493A33A
:1009A900FAE493A3F8E493A3C8C582C8CAC583CA65
:1009B900F0A3C8C582C8CAC583CADFE9DEE780BE1D
:010D6A000088
:100CB300BB010689828A83E0225002E722BBFE023F
:090CC300E32289828A83E4932272
:00000001FF
